:100000000C9446000C9465000C9465000C946500FB
:100010000C9465000C9465000C9465000C946500CC
:100020000C9465000C9465000C9465000C946500BC
:100030000C9465000C9465000C9465000C946500AC
:100040000C9465000C9465000C9465000C9465009C
:100050000C9465000C9465000C9465000C9465008C
:100060000C9465000C9465000C9465000C9465007C
:100070000C9465000C9465000C9465000C9465006C
:100080000C9465000C9465000C94650011241FBE4F
:10009000CFEFD0E4DEBFCDBF11E0A0E0B1E0EEE8ED
:1000A000F3E000E00BBF02C007900D92AE30B10745
:1000B000D9F721E0AEE0B1E001C01D92A131B20755
:1000C000E1F70E94A8010C94C5010C940000CF93A5
:1000D000DF9300D01F92CDB7DEB789837B836A831D
:1000E00089818A3031F48A819B81BC018DE00E9434
:1000F000670080EC90E0FC018081882F90E08072A6
:100100009927892BB1F386EC90E02981FC012083AB
:1001100080E090E00F900F900F90DF91CF910895C5
:10012000CF93DF9300D01F92CDB7DEB78B831A82B7
:10013000198227C088E290E028E0FC01208388E251
:1001400090E028E230E0F9012081422F2B81222F1C
:1001500030E0098002C0359527950A94E2F72170B6
:10016000242BFC01208388E290E028E230E0F901B2
:1001700020812260FC01208389819A8101969A83E3
:10018000898389819A810897ACF288E290E028E21D
:1001900030E0F90120812460FC01208388E290E0B6
:1001A000FC01108200000F900F900F90DF91CF9113
:1001B0000895CF93DF9300D0CDB7DEB780E290E013
:1001C000FC018081882F90E08170992721E0892BA4
:1001D00009F020E0298380E290E0FC018081809595
:1001E00082708A8380910F01909110018230910575
:1001F00009F45AC08330910528F4009759F001970B
:1002000081F09CC08330910509F468C0049709F41B
:100210007FC094C081E090E09093100180930F0123
:100220008DC08981882361F08A81882349F01092EA
:100230000E0184E090E09093100180930F0133C091
:100240008981882399F08A81882381F480910E0125
:100250008F3F61F080910E018F5F80930E0182E0ED
:1002600090E09093100180930F011DC08981882335
:1002700099F48A81882381F080910E01882361F0AE
:1002800080910E01815080930E0183E090E0909365
:10029000100180930F0107C081E090E0909310015E
:1002A00080930F014BC04AC08981882331F08A8135
:1002B000882319F010920E0141C08981882339F0FA
:1002C00082E090E09093100180930F0137C081E0AD
:1002D00090E09093100180930F0130C089818823B2
:1002E00031F08A81882319F010920E0127C08A818B
:1002F000882339F083E090E09093100180930F0100
:100300001DC081E090E09093100180930F0116C012
:100310008981882361F08A81882349F010920E0137
:1003200084E090E09093100180930F0106C081E07B
:1003300090E09093100180930F01000080910E01D6
:100340000E94900000000F900F90DF91CF910895D0
:10035000CF93DF93CDB7DEB781E290E0FC0110824E
:1003600082E290E02FEFFC01208387E290E02FEF04
:10037000FC01208388E290E0FC01108210921001C1
:0E03800010920F010E94D900FDCFF894FFCF1C
:0E038E000000000200000000670000000000F8
:00000001FF
